{"abi":[{"type":"constructor","inputs":[{"name":"threatAddress","type":"address","internalType":"address"},{"name":"orgAddress","type":"address","internalType":"address"}],"stateMutability":"nonpayable"},{"type":"function","name":"attestThreat","inputs":[{"name":"threatId","type":"uint256","internalType":"uint256"},{"name":"verdict","type":"uint8","internalType":"enum AttestationEngine.Verdict"}],"outputs":[],"stateMutability":"nonpayable"},{"type":"function","name":"getThreatStats","inputs":[{"name":"threatId","type":"uint256","internalType":"uint256"}],"outputs":[{"name":"valid","type":"uint256","internalType":"uint256"},{"name":"invalid","type":"uint256","internalType":"uint256"}],"stateMutability":"view"},{"type":"function","name":"orgRegistry","inputs":[],"outputs":[{"name":"","type":"address","internalType":"contract OrgRegistry"}],"stateMutability":"view"},{"type":"function","name":"threatRegistry","inputs":[],"outputs":[{"name":"","type":"address","internalType":"contract ThreatRegistry"}],"stateMutability":"view"},{"type":"function","name":"threatStats","inputs":[{"name":"","type":"uint256","internalType":"uint256"}],"outputs":[{"name":"validCount","type":"uint256","internalType":"uint256"},{"name":"invalidCount","type":"uint256","internalType":"uint256"}],"stateMutability":"view"},{"type":"function","name":"votes","inputs":[{"name":"","type":"uint256","internalType":"uint256"},{"name":"","type":"address","internalType":"address"}],"outputs":[{"name":"","type":"uint8","internalType":"enum AttestationEngine.Verdict"}],"stateMutability":"view"},{"type":"event","name":"ThreatAttested","inputs":[{"name":"threatId","type":"uint256","indexed":true,"internalType":"uint256"},{"name":"validator","type":"address","indexed":true,"internalType":"address"},{"name":"verdict","type":"uint8","indexed":false,"internalType":"enum AttestationEngine.Verdict"}],"anonymous":false},{"type":"error","name":"AlreadyVoted","inputs":[]},{"type":"error","name":"NotRegisteredOrganization","inputs":[]},{"type":"error","name":"OrganizationInactive","inputs":[]}],"bytecode":{"object":"0x608060405234801561000f575f5ffd5b50604051610b39380380610b3983398181016040528101906100319190610115565b815f5f6101000a81548173ffffffffffffffffffffffffffffffffffffffff021916908373ffffffffffffffffffffffffffffffffffffffff1602179055508060015f6101000a81548173ffffffffffffffffffffffffffffffffffffffff021916908373ffffffffffffffffffffffffffffffffffffffff1602179055505050610153565b5f5ffd5b5f73ffffffffffffffffffffffffffffffffffffffff82169050919050565b5f6100e4826100bb565b9050919050565b6100f4816100da565b81146100fe575f5ffd5b50565b5f8151905061010f816100eb565b92915050565b5f5f6040838503121561012b5761012a6100b7565b5b5f61013885828601610101565b925050602061014985828601610101565b9150509250929050565b6109d9806101605f395ff3fe608060405234801561000f575f5ffd5b5060043610610060575f3560e01c80630d72824014610064578063573f239c1461008257806364679c28146100a0578063685b95d5146100d1578063ad7ff3f0146100ed578063d23254b41461011e575b5f5ffd5b61006c61014e565b6040516100799190610657565b60405180910390f35b61008a610172565b6040516100979190610690565b60405180910390f35b6100ba60048036038101906100b591906106e0565b610197565b6040516100c892919061071a565b60405180910390f35b6100eb60048036038101906100e69190610764565b6101b7565b005b610107600480360381019061010291906106e0565b61057f565b60405161011592919061071a565b60405180910390f35b610138600480360381019061013391906107dd565b6105b3565b604051610145919061088e565b60405180910390f35b5f5f9054906101000a900473ffffffffffffffffffffffffffffffffffffffff1681565b60015f9054906101000a900473ffffffffffffffffffffffffffffffffffffffff1681565b6002602052805f5260405f205f91509050805f0154908060010154905082565b60015f9054906101000a900473ffffffffffffffffffffffffffffffffffffffff1673ffffffffffffffffffffffffffffffffffffffff1663c3c5a547336040518263ffffffff1660e01b815260040161021191906108b6565b602060405180830381865afa15801561022c573d5f5f3e3d5ffd5b505050506040513d601f19601f820116820180604052508101906102509190610904565b610286576040517faa3aeb6500000000000000000000000000000000000000000000000000000000815260040160405180910390fd5b60015f9054906101000a900473ffffffffffffffffffffffffffffffffffffffff1673ffffffffffffffffffffffffffffffffffffffff16639f8a13d7336040518263ffffffff1660e01b81526004016102e091906108b6565b602060405180830381865afa1580156102fb573d5f5f3e3d5ffd5b505050506040513d601f19601f8201168201806040525081019061031f9190610904565b610355576040517f3184e83d00000000000000000000000000000000000000000000000000000000815260040160405180910390fd5b5f60028111156103685761036761081b565b5b60035f8481526020019081526020015f205f3373ffffffffffffffffffffffffffffffffffffffff1673ffffffffffffffffffffffffffffffffffffffff1681526020019081526020015f205f9054906101000a900460ff1660028111156103d3576103d261081b565b5b1461040a576040517f7c9a1cf900000000000000000000000000000000000000000000000000000000815260040160405180910390fd5b8060035f8481526020019081526020015f205f3373ffffffffffffffffffffffffffffffffffffffff1673ffffffffffffffffffffffffffffffffffffffff1681526020019081526020015f205f6101000a81548160ff021916908360028111156104785761047761081b565b5b0217905550600160028111156104915761049061081b565b5b8160028111156104a4576104a361081b565b5b036104d65760025f8381526020019081526020015f205f015f8154809291906104cc9061095c565b919050555061052c565b6002808111156104e9576104e861081b565b5b8160028111156104fc576104fb61081b565b5b0361052b5760025f8381526020019081526020015f206001015f8154809291906105259061095c565b91905055505b5b3373ffffffffffffffffffffffffffffffffffffffff16827f395900122631545c25d63cff83716657ef7985dfe54526ae5c639bcbb2f4022c83604051610573919061088e565b60405180910390a35050565b5f5f60025f8481526020019081526020015f205f0154915060025f8481526020019081526020015f20600101549050915091565b6003602052815f5260405f20602052805f5260405f205f915091509054906101000a900460ff1681565b5f73ffffffffffffffffffffffffffffffffffffffff82169050919050565b5f819050919050565b5f61061f61061a610615846105dd565b6105fc565b6105dd565b9050919050565b5f61063082610605565b9050919050565b5f61064182610626565b9050919050565b61065181610637565b82525050565b5f60208201905061066a5f830184610648565b92915050565b5f61067a82610626565b9050919050565b61068a81610670565b82525050565b5f6020820190506106a35f830184610681565b92915050565b5f5ffd5b5f819050919050565b6106bf816106ad565b81146106c9575f5ffd5b50565b5f813590506106da816106b6565b92915050565b5f602082840312156106f5576106f46106a9565b5b5f610702848285016106cc565b91505092915050565b610714816106ad565b82525050565b5f60408201905061072d5f83018561070b565b61073a602083018461070b565b9392505050565b6003811061074d575f5ffd5b50565b5f8135905061075e81610741565b92915050565b5f5f6040838503121561077a576107796106a9565b5b5f610787858286016106cc565b925050602061079885828601610750565b9150509250929050565b5f6107ac826105dd565b9050919050565b6107bc816107a2565b81146107c6575f5ffd5b50565b5f813590506107d7816107b3565b92915050565b5f5f604083850312156107f3576107f26106a9565b5b5f610800858286016106cc565b9250506020610811858286016107c9565b9150509250929050565b7f4e487b71000000000000000000000000000000000000000000000000000000005f52602160045260245ffd5b600381106108595761085861081b565b5b50565b5f81905061086982610848565b919050565b5f6108788261085c565b9050919050565b6108888161086e565b82525050565b5f6020820190506108a15f83018461087f565b92915050565b6108b0816107a2565b82525050565b5f6020820190506108c95f8301846108a7565b92915050565b5f8115159050919050565b6108e3816108cf565b81146108ed575f5ffd5b50565b5f815190506108fe816108da565b92915050565b5f60208284031215610919576109186106a9565b5b5f610926848285016108f0565b91505092915050565b7f4e487b71000000000000000000000000000000000000000000000000000000005f52601160045260245ffd5b5f610966826106ad565b91507fffffffffffffffffffffffffffffffffffffffffffffffffffffffffffffffff82036109985761099761092f565b5b60018201905091905056fea2646970667358221220f58f77266df05f3ee8565598629a2c12d488914ac609cc7794b6f12100a61dee64736f6c63430008210033","linkReferences":{}},"methodIdentifiers":{"attestThreat(uint256,uint8)":"685b95d5","getThreatStats(uint256)":"ad7ff3f0","orgRegistry()":"573f239c","threatRegistry()":"0d728240","threatStats(uint256)":"64679c28","votes(uint256,address)":"d23254b4"},"id":16}