{"abi":[{"type":"constructor","inputs":[{"name":"threatAddress","type":"address","internalType":"address"},{"name":"orgAddress","type":"address","internalType":"address"}],"stateMutability":"nonpayable"},{"type":"function","name":"attestThreat","inputs":[{"name":"threatId","type":"uint256","internalType":"uint256"},{"name":"verdict","type":"uint8","internalType":"enum AttestationEngine.Verdict"}],"outputs":[],"stateMutability":"nonpayable"},{"type":"function","name":"getThreatStats","inputs":[{"name":"threatId","type":"uint256","internalType":"uint256"}],"outputs":[{"name":"valid","type":"uint256","internalType":"uint256"},{"name":"invalid","type":"uint256","internalType":"uint256"}],"stateMutability":"view"},{"type":"function","name":"orgRegistry","inputs":[],"outputs":[{"name":"","type":"address","internalType":"contract OrgRegistry"}],"stateMutability":"view"},{"type":"function","name":"threatRegistry","inputs":[],"outputs":[{"name":"","type":"address","internalType":"contract ThreatRegistry"}],"stateMutability":"view"},{"type":"function","name":"threatStats","inputs":[{"name":"","type":"uint256","internalType":"uint256"}],"outputs":[{"name":"validCount","type":"uint256","internalType":"uint256"},{"name":"invalidCount","type":"uint256","internalType":"uint256"}],"stateMutability":"view"},{"type":"function","name":"votes","inputs":[{"name":"","type":"uint256","internalType":"uint256"},{"name":"","type":"address","internalType":"address"}],"outputs":[{"name":"","type":"uint8","internalType":"enum AttestationEngine.Verdict"}],"stateMutability":"view"},{"type":"event","name":"ThreatAttested","inputs":[{"name":"threatId","type":"uint256","indexed":true,"internalType":"uint256"},{"name":"validator","type":"address","indexed":true,"internalType":"address"},{"name":"verdict","type":"uint8","indexed":false,"internalType":"enum AttestationEngine.Verdict"}],"anonymous":false},{"type":"error","name":"AlreadyVoted","inputs":[]},{"type":"error","name":"InvalidVerdict","inputs":[]},{"type":"error","name":"NotRegisteredOrganization","inputs":[]},{"type":"error","name":"OrganizationInactive","inputs":[]},{"type":"error","name":"SelfVoteNotAllowed","inputs":[]},{"type":"error","name":"ThreatNotActive","inputs":[]}],"bytecode":{"object":"0x608060405234801561000f575f5ffd5b50604051610f6b380380610f6b83398181016040528101906100319190610115565b815f5f6101000a81548173ffffffffffffffffffffffffffffffffffffffff021916908373ffffffffffffffffffffffffffffffffffffffff1602179055508060015f6101000a81548173ffffffffffffffffffffffffffffffffffffffff021916908373ffffffffffffffffffffffffffffffffffffffff1602179055505050610153565b5f5ffd5b5f73ffffffffffffffffffffffffffffffffffffffff82169050919050565b5f6100e4826100bb565b9050919050565b6100f4816100da565b81146100fe575f5ffd5b50565b5f8151905061010f816100eb565b92915050565b5f5f6040838503121561012b5761012a6100b7565b5b5f61013885828601610101565b925050602061014985828601610101565b9150509250929050565b610e0b806101605f395ff3fe608060405234801561000f575f5ffd5b5060043610610060575f3560e01c80630d72824014610064578063573f239c1461008257806364679c28146100a0578063685b95d5146100d1578063ad7ff3f0146100ed578063d23254b41461011e575b5f5ffd5b61006c61014e565b60405161007991906107c9565b60405180910390f35b61008a610172565b6040516100979190610802565b60405180910390f35b6100ba60048036038101906100b5919061085f565b610197565b6040516100c8929190610899565b60405180910390f35b6100eb60048036038101906100e691906108e3565b6101b7565b005b6101076004803603810190610102919061085f565b6106fc565b604051610115929190610899565b60405180910390f35b6101386004803603810190610133919061095c565b610725565b6040516101459190610a0d565b60405180910390f35b5f5f9054906101000a900473ffffffffffffffffffffffffffffffffffffffff1681565b60015f9054906101000a900473ffffffffffffffffffffffffffffffffffffffff1681565b6002602052805f5260405f205f91509050805f0154908060010154905082565b5f60028111156101ca576101c961099a565b5b8160028111156101dd576101dc61099a565b5b03610214576040517ffbcebe7200000000000000000000000000000000000000000000000000000000815260040160405180910390fd5b60015f9054906101000a900473ffffffffffffffffffffffffffffffffffffffff1673ffffffffffffffffffffffffffffffffffffffff1663c3c5a547336040518263ffffffff1660e01b815260040161026e9190610a35565b602060405180830381865afa158015610289573d5f5f3e3d5ffd5b505050506040513d601f19601f820116820180604052508101906102ad9190610a83565b6102e3576040517faa3aeb6500000000000000000000000000000000000000000000000000000000815260040160405180910390fd5b60015f9054906101000a900473ffffffffffffffffffffffffffffffffffffffff1673ffffffffffffffffffffffffffffffffffffffff16639f8a13d7336040518263ffffffff1660e01b815260040161033d9190610a35565b602060405180830381865afa158015610358573d5f5f3e3d5ffd5b505050506040513d601f19601f8201168201806040525081019061037c9190610a83565b6103b2576040517f3184e83d00000000000000000000000000000000000000000000000000000000815260040160405180910390fd5b5f5f5f5f5f5f5f5f5f5f9054906101000a900473ffffffffffffffffffffffffffffffffffffffff1673ffffffffffffffffffffffffffffffffffffffff166351dc17428b6040518263ffffffff1660e01b81526004016104139190610aae565b5f60405180830381865afa15801561042d573d5f5f3e3d5ffd5b505050506040513d5f823e3d601f19601f820116820180604052508101906104559190610c94565b975097509750975097509750975097508061049c576040517ff94beec400000000000000000000000000000000000000000000000000000000815260040160405180910390fd5b8673ffffffffffffffffffffffffffffffffffffffff163373ffffffffffffffffffffffffffffffffffffffff1603610501576040517fd425e43200000000000000000000000000000000000000000000000000000000815260040160405180910390fd5b5f60028111156105145761051361099a565b5b60035f8c81526020019081526020015f205f3373ffffffffffffffffffffffffffffffffffffffff1673ffffffffffffffffffffffffffffffffffffffff1681526020019081526020015f205f9054906101000a900460ff16600281111561057f5761057e61099a565b5b146105b6576040517f7c9a1cf900000000000000000000000000000000000000000000000000000000815260040160405180910390fd5b8860035f8c81526020019081526020015f205f3373ffffffffffffffffffffffffffffffffffffffff1673ffffffffffffffffffffffffffffffffffffffff1681526020019081526020015f205f6101000a81548160ff021916908360028111156106245761062361099a565b5b02179055505f60025f8c81526020019081526020015f209050600160028111156106515761065061099a565b5b8a60028111156106645761066361099a565b5b0361068657805f015f81548092919061067c90610d8e565b91905055506106a0565b806001015f81548092919061069a90610d8e565b91905055505b3373ffffffffffffffffffffffffffffffffffffffff168b7f395900122631545c25d63cff83716657ef7985dfe54526ae5c639bcbb2f4022c8c6040516106e79190610a0d565b60405180910390a35050505050505050505050565b5f5f5f60025f8581526020019081526020015f209050805f015492508060010154915050915091565b6003602052815f5260405f20602052805f5260405f205f915091509054906101000a900460ff1681565b5f73ffffffffffffffffffffffffffffffffffffffff82169050919050565b5f819050919050565b5f61079161078c6107878461074f565b61076e565b61074f565b9050919050565b5f6107a282610777565b9050919050565b5f6107b382610798565b9050919050565b6107c3816107a9565b82525050565b5f6020820190506107dc5f8301846107ba565b92915050565b5f6107ec82610798565b9050919050565b6107fc816107e2565b82525050565b5f6020820190506108155f8301846107f3565b92915050565b5f604051905090565b5f5ffd5b5f5ffd5b5f819050919050565b61083e8161082c565b8114610848575f5ffd5b50565b5f8135905061085981610835565b92915050565b5f6020828403121561087457610873610824565b5b5f6108818482850161084b565b91505092915050565b6108938161082c565b82525050565b5f6040820190506108ac5f83018561088a565b6108b9602083018461088a565b9392505050565b600381106108cc575f5ffd5b50565b5f813590506108dd816108c0565b92915050565b5f5f604083850312156108f9576108f8610824565b5b5f6109068582860161084b565b9250506020610917858286016108cf565b9150509250929050565b5f61092b8261074f565b9050919050565b61093b81610921565b8114610945575f5ffd5b50565b5f8135905061095681610932565b92915050565b5f5f6040838503121561097257610971610824565b5b5f61097f8582860161084b565b925050602061099085828601610948565b9150509250929050565b7f4e487b71000000000000000000000000000000000000000000000000000000005f52602160045260245ffd5b600381106109d8576109d761099a565b5b50565b5f8190506109e8826109c7565b919050565b5f6109f7826109db565b9050919050565b610a07816109ed565b82525050565b5f602082019050610a205f8301846109fe565b92915050565b610a2f81610921565b82525050565b5f602082019050610a485f830184610a26565b92915050565b5f8115159050919050565b610a6281610a4e565b8114610a6c575f5ffd5b50565b5f81519050610a7d81610a59565b92915050565b5f60208284031215610a9857610a97610824565b5b5f610aa584828501610a6f565b91505092915050565b5f602082019050610ac15f83018461088a565b92915050565b5f81519050610ad581610835565b92915050565b5f81519050610ae981610932565b92915050565b5f819050919050565b610b0181610aef565b8114610b0b575f5ffd5b50565b5f81519050610b1c81610af8565b92915050565b5f5ffd5b5f5ffd5b5f601f19601f8301169050919050565b7f4e487b71000000000000000000000000000000000000000000000000000000005f52604160045260245ffd5b610b7082610b2a565b810181811067ffffffffffffffff82111715610b8f57610b8e610b3a565b5b80604052505050565b5f610ba161081b565b9050610bad8282610b67565b919050565b5f67ffffffffffffffff821115610bcc57610bcb610b3a565b5b610bd582610b2a565b9050602081019050919050565b8281835e5f83830152505050565b5f610c02610bfd84610bb2565b610b98565b905082815260208101848484011115610c1e57610c1d610b26565b5b610c29848285610be2565b509392505050565b5f82601f830112610c4557610c44610b22565b5b8151610c55848260208601610bf0565b91505092915050565b5f60ff82169050919050565b610c7381610c5e565b8114610c7d575f5ffd5b50565b5f81519050610c8e81610c6a565b92915050565b5f5f5f5f5f5f5f5f610100898b031215610cb157610cb0610824565b5b5f610cbe8b828c01610ac7565b9850506020610ccf8b828c01610adb565b9750506040610ce08b828c01610b0e565b965050606089015167ffffffffffffffff811115610d0157610d00610828565b5b610d0d8b828c01610c31565b9550506080610d1e8b828c01610c80565b94505060a0610d2f8b828c01610c80565b93505060c0610d408b828c01610ac7565b92505060e0610d518b828c01610a6f565b9150509295985092959890939650565b7f4e487b71000000000000000000000000000000000000000000000000000000005f52601160045260245ffd5b5f610d988261082c565b91507fffffffffffffffffffffffffffffffffffffffffffffffffffffffffffffffff8203610dca57610dc9610d61565b5b60018201905091905056fea26469706673582212204585bc44e2da65cb23c8f13d02db7a59c1e009c974f22d2dcbaf6c53ed5f0f9364736f6c63430008210033","linkReferences":{}},"methodIdentifiers":{"attestThreat(uint256,uint8)":"685b95d5","getThreatStats(uint256)":"ad7ff3f0","orgRegistry()":"573f239c","threatRegistry()":"0d728240","threatStats(uint256)":"64679c28","votes(uint256,address)":"d23254b4"},"id":0}