{"abi":[{"type":"function","name":"deactivateOrganization","inputs":[],"outputs":[],"stateMutability":"nonpayable"},{"type":"function","name":"isActive","inputs":[{"name":"wallet","type":"address","internalType":"address"}],"outputs":[{"name":"","type":"bool","internalType":"bool"}],"stateMutability":"view"},{"type":"function","name":"isRegistered","inputs":[{"name":"","type":"address","internalType":"address"}],"outputs":[{"name":"","type":"bool","internalType":"bool"}],"stateMutability":"view"},{"type":"function","name":"organizations","inputs":[{"name":"","type":"address","internalType":"address"}],"outputs":[{"name":"wallet","type":"address","internalType":"address"},{"name":"name","type":"string","internalType":"string"},{"name":"metadataHash","type":"bytes32","internalType":"bytes32"},{"name":"registeredAt","type":"uint256","internalType":"uint256"},{"name":"active","type":"bool","internalType":"bool"}],"stateMutability":"view"},{"type":"function","name":"registerOrganization","inputs":[{"name":"name","type":"string","internalType":"string"},{"name":"metadataHash","type":"bytes32","internalType":"bytes32"}],"outputs":[],"stateMutability":"nonpayable"},{"type":"event","name":"OrganizationDeactivated","inputs":[{"name":"wallet","type":"address","indexed":true,"internalType":"address"}],"anonymous":false},{"type":"event","name":"OrganizationRegistered","inputs":[{"name":"wallet","type":"address","indexed":true,"internalType":"address"},{"name":"name","type":"string","indexed":false,"internalType":"string"}],"anonymous":false},{"type":"error","name":"AlreadyRegistered","inputs":[]},{"type":"error","name":"NotRegistered","inputs":[]}],"bytecode":{"object":"0x6080604052348015600e575f5ffd5b50610c458061001c5f395ff3fe608060405234801561000f575f5ffd5b5060043610610055575f3560e01c806357c831b0146100595780635a1f7406146100635780639f8a13d714610097578063bfde380d146100c7578063c3c5a547146100e3575b5f5ffd5b610061610113565b005b61007d6004803603810190610078919061065c565b61022e565b60405161008e959493929190610750565b60405180910390f35b6100b160048036038101906100ac919061065c565b610310565b6040516100be91906107a8565b60405180910390f35b6100e160048036038101906100dc919061084c565b610364565b005b6100fd60048036038101906100f8919061065c565b6105dd565b60405161010a91906107a8565b60405180910390f35b60015f3373ffffffffffffffffffffffffffffffffffffffff1673ffffffffffffffffffffffffffffffffffffffff1681526020019081526020015f205f9054906101000a900460ff16610193576040517faba4733900000000000000000000000000000000000000000000000000000000815260040160405180910390fd5b5f5f5f3373ffffffffffffffffffffffffffffffffffffffff1673ffffffffffffffffffffffffffffffffffffffff1681526020019081526020015f206004015f6101000a81548160ff0219169083151502179055503373ffffffffffffffffffffffffffffffffffffffff167fc90df498d0538be4aa86812c573910759ce508c68778eb31883490c274f508b060405160405180910390a2565b5f602052805f5260405f205f91509050805f015f9054906101000a900473ffffffffffffffffffffffffffffffffffffffff1690806001018054610271906108d6565b80601f016020809104026020016040519081016040528092919081815260200182805461029d906108d6565b80156102e85780601f106102bf576101008083540402835291602001916102e8565b820191905f5260205f20905b8154815290600101906020018083116102cb57829003601f168201915b505050505090806002015490806003015490806004015f9054906101000a900460ff16905085565b5f5f5f8373ffffffffffffffffffffffffffffffffffffffff1673ffffffffffffffffffffffffffffffffffffffff1681526020019081526020015f206004015f9054906101000a900460ff169050919050565b60015f3373ffffffffffffffffffffffffffffffffffffffff1673ffffffffffffffffffffffffffffffffffffffff1681526020019081526020015f205f9054906101000a900460ff16156103e5576040517f3a81d6fc00000000000000000000000000000000000000000000000000000000815260040160405180910390fd5b6040518060a001604052803373ffffffffffffffffffffffffffffffffffffffff16815260200184848080601f0160208091040260200160405190810160405280939291908181526020018383808284375f81840152601f19601f820116905080830192505050505050508152602001828152602001428152602001600115158152505f5f3373ffffffffffffffffffffffffffffffffffffffff1673ffffffffffffffffffffffffffffffffffffffff1681526020019081526020015f205f820151815f015f6101000a81548173ffffffffffffffffffffffffffffffffffffffff021916908373ffffffffffffffffffffffffffffffffffffffff16021790555060208201518160010190816104fd9190610ae4565b5060408201518160020155606082015181600301556080820151816004015f6101000a81548160ff0219169083151502179055509050506001805f3373ffffffffffffffffffffffffffffffffffffffff1673ffffffffffffffffffffffffffffffffffffffff1681526020019081526020015f205f6101000a81548160ff0219169083151502179055503373ffffffffffffffffffffffffffffffffffffffff167f783e607e94efcb9adce3489c806008ddc378d784ae22a1f801458720054325a284846040516105d0929190610bed565b60405180910390a2505050565b6001602052805f5260405f205f915054906101000a900460ff1681565b5f5ffd5b5f5ffd5b5f73ffffffffffffffffffffffffffffffffffffffff82169050919050565b5f61062b82610602565b9050919050565b61063b81610621565b8114610645575f5ffd5b50565b5f8135905061065681610632565b92915050565b5f60208284031215610671576106706105fa565b5b5f61067e84828501610648565b91505092915050565b61069081610621565b82525050565b5f81519050919050565b5f82825260208201905092915050565b8281835e5f83830152505050565b5f601f19601f8301169050919050565b5f6106d882610696565b6106e281856106a0565b93506106f28185602086016106b0565b6106fb816106be565b840191505092915050565b5f819050919050565b61071881610706565b82525050565b5f819050919050565b6107308161071e565b82525050565b5f8115159050919050565b61074a81610736565b82525050565b5f60a0820190506107635f830188610687565b818103602083015261077581876106ce565b9050610784604083018661070f565b6107916060830185610727565b61079e6080830184610741565b9695505050505050565b5f6020820190506107bb5f830184610741565b92915050565b5f5ffd5b5f5ffd5b5f5ffd5b5f5f83601f8401126107e2576107e16107c1565b5b8235905067ffffffffffffffff8111156107ff576107fe6107c5565b5b60208301915083600182028301111561081b5761081a6107c9565b5b9250929050565b61082b81610706565b8114610835575f5ffd5b50565b5f8135905061084681610822565b92915050565b5f5f5f60408486031215610863576108626105fa565b5b5f84013567ffffffffffffffff8111156108805761087f6105fe565b5b61088c868287016107cd565b9350935050602061089f86828701610838565b9150509250925092565b7f4e487b71000000000000000000000000000000000000000000000000000000005f52602260045260245ffd5b5f60028204905060018216806108ed57607f821691505b602082108103610900576108ff6108a9565b5b50919050565b7f4e487b71000000000000000000000000000000000000000000000000000000005f52604160045260245ffd5b5f819050815f5260205f209050919050565b5f6020601f8301049050919050565b5f82821b905092915050565b5f6008830261098f7fffffffffffffffffffffffffffffffffffffffffffffffffffffffffffffffff82610954565b6109998683610954565b95508019841693508086168417925050509392505050565b5f819050919050565b5f6109d46109cf6109ca8461071e565b6109b1565b61071e565b9050919050565b5f819050919050565b6109ed836109ba565b610a016109f9826109db565b848454610960565b825550505050565b5f5f905090565b610a18610a09565b610a238184846109e4565b505050565b5f5b82811015610a4957610a3e5f828401610a10565b600181019050610a2a565b505050565b601f821115610a9c5782821115610a9b57610a6881610933565b610a7183610945565b610a7a85610945565b6020861015610a87575f90505b808301610a9682840382610a28565b505050505b5b505050565b5f82821c905092915050565b5f610abc5f1984600802610aa1565b1980831691505092915050565b5f610ad48383610aad565b9150826002028217905092915050565b610aed82610696565b67ffffffffffffffff811115610b0657610b05610906565b5b610b1082546108d6565b610b1b828285610a4e565b5f60209050601f831160018114610b4c575f8415610b3a578287015190505b610b448582610ac9565b865550610bab565b601f198416610b5a86610933565b5f5b82811015610b8157848901518255600182019150602085019450602081019050610b5c565b86831015610b9e5784890151610b9a601f891682610aad565b8355505b6001600288020188555050505b505050505050565b828183375f83830152505050565b5f610bcc83856106a0565b9350610bd9838584610bb3565b610be2836106be565b840190509392505050565b5f6020820190508181035f830152610c06818486610bc1565b9050939250505056fea264697066735822122001cc8588ca04bc871526eda1cb771332b44f2a52888d70f2a2ecd53be13d605164736f6c63430008210033","linkReferences":{}},"methodIdentifiers":{"deactivateOrganization()":"57c831b0","isActive(address)":"9f8a13d7","isRegistered(address)":"c3c5a547","organizations(address)":"5a1f7406","registerOrganization(string,bytes32)":"bfde380d"},"id":0}