{"abi":[{"type":"constructor","inputs":[],"stateMutability":"nonpayable"},{"type":"function","name":"admin","inputs":[],"outputs":[{"name":"","type":"address","internalType":"address"}],"stateMutability":"view"},{"type":"function","name":"adminDeactivate","inputs":[{"name":"org","type":"address","internalType":"address"}],"outputs":[],"stateMutability":"nonpayable"},{"type":"function","name":"adminReactivate","inputs":[{"name":"org","type":"address","internalType":"address"}],"outputs":[],"stateMutability":"nonpayable"},{"type":"function","name":"deactivateOrganization","inputs":[],"outputs":[],"stateMutability":"nonpayable"},{"type":"function","name":"getOrganization","inputs":[{"name":"wallet","type":"address","internalType":"address"}],"outputs":[{"name":"","type":"tuple","internalType":"struct OrgRegistry.Organization","components":[{"name":"wallet","type":"address","internalType":"address"},{"name":"name","type":"string","internalType":"string"},{"name":"metadataHash","type":"bytes32","internalType":"bytes32"},{"name":"registeredAt","type":"uint256","internalType":"uint256"},{"name":"active","type":"bool","internalType":"bool"}]}],"stateMutability":"view"},{"type":"function","name":"getOrganizations","inputs":[],"outputs":[{"name":"","type":"address[]","internalType":"address[]"}],"stateMutability":"view"},{"type":"function","name":"isActive","inputs":[{"name":"wallet","type":"address","internalType":"address"}],"outputs":[{"name":"","type":"bool","internalType":"bool"}],"stateMutability":"view"},{"type":"function","name":"isRegistered","inputs":[{"name":"","type":"address","internalType":"address"}],"outputs":[{"name":"","type":"bool","internalType":"bool"}],"stateMutability":"view"},{"type":"function","name":"organizationCount","inputs":[],"outputs":[{"name":"","type":"uint256","internalType":"uint256"}],"stateMutability":"view"},{"type":"function","name":"organizationList","inputs":[{"name":"","type":"uint256","internalType":"uint256"}],"outputs":[{"name":"","type":"address","internalType":"address"}],"stateMutability":"view"},{"type":"function","name":"organizations","inputs":[{"name":"","type":"address","internalType":"address"}],"outputs":[{"name":"wallet","type":"address","internalType":"address"},{"name":"name","type":"string","internalType":"string"},{"name":"metadataHash","type":"bytes32","internalType":"bytes32"},{"name":"registeredAt","type":"uint256","internalType":"uint256"},{"name":"active","type":"bool","internalType":"bool"}],"stateMutability":"view"},{"type":"function","name":"reactivateOrganization","inputs":[],"outputs":[],"stateMutability":"nonpayable"},{"type":"function","name":"registerOrganization","inputs":[{"name":"name","type":"string","internalType":"string"},{"name":"metadataHash","type":"bytes32","internalType":"bytes32"}],"outputs":[],"stateMutability":"nonpayable"},{"type":"event","name":"OrganizationDeactivated","inputs":[{"name":"wallet","type":"address","indexed":true,"internalType":"address"}],"anonymous":false},{"type":"event","name":"OrganizationReactivated","inputs":[{"name":"wallet","type":"address","indexed":true,"internalType":"address"}],"anonymous":false},{"type":"event","name":"OrganizationRegistered","inputs":[{"name":"wallet","type":"address","indexed":true,"internalType":"address"},{"name":"name","type":"string","indexed":false,"internalType":"string"}],"anonymous":false},{"type":"error","name":"AdminCannotRegister","inputs":[]},{"type":"error","name":"AlreadyActive","inputs":[]},{"type":"error","name":"AlreadyInactive","inputs":[]},{"type":"error","name":"AlreadyRegistered","inputs":[]},{"type":"error","name":"InvalidMetadata","inputs":[]},{"type":"error","name":"InvalidName","inputs":[]},{"type":"error","name":"NotRegistered","inputs":[]}],"bytecode":{"object":"0x6080604052348015600e575f5ffd5b503360045f6101000a81548173ffffffffffffffffffffffffffffffffffffffff021916908373ffffffffffffffffffffffffffffffffffffffff160217905550611c888061005c5f395ff3fe608060405234801561000f575f5ffd5b50600436106100cd575f3560e01c8063ac467e521161008a578063d2c30a6d11610064578063d2c30a6d146101ff578063f1c621041461022f578063f1d2fd781461024d578063f851a44014610269576100cd565b8063ac467e5214610197578063bfde380d146101b3578063c3c5a547146101cf576100cd565b80632e498df5146100d157806357c831b0146101015780635a1f74061461010b57806393d175291461013f5780639754a3a8146101495780639f8a13d714610167575b5f5ffd5b6100eb60048036038101906100e69190611336565b610287565b6040516100f891906113a0565b60405180910390f35b6101096102c2565b005b610125600480360381019061012091906113e3565b61045f565b6040516101369594939291906114bf565b60405180910390f35b610147610541565b005b6101516106e0565b60405161015e91906115ce565b60405180910390f35b610181600480360381019061017c91906113e3565b61076b565b60405161018e91906115ee565b60405180910390f35b6101b160048036038101906101ac91906113e3565b61083f565b005b6101cd60048036038101906101c89190611692565b610a6e565b005b6101e960048036038101906101e491906113e3565b610e5b565b6040516101f691906115ee565b60405180910390f35b610219600480360381019061021491906113e3565b610e78565b60405161022691906117d7565b60405180910390f35b610237611060565b60405161024491906117f7565b60405180910390f35b610267600480360381019061026291906113e3565b611066565b005b610271611293565b60405161027e91906113a0565b60405180910390f35b60028181548110610296575f80fd5b905f5260205f20015f915054906101000a900473ffffffffffffffffffffffffffffffffffffffff1681565b60015f3373ffffffffffffffffffffffffffffffffffffffff1673ffffffffffffffffffffffffffffffffffffffff1681526020019081526020015f205f9054906101000a900460ff16610342576040517faba4733900000000000000000000000000000000000000000000000000000000815260040160405180910390fd5b5f5f3373ffffffffffffffffffffffffffffffffffffffff1673ffffffffffffffffffffffffffffffffffffffff1681526020019081526020015f206004015f9054906101000a900460ff166103c4576040517f232990cb00000000000000000000000000000000000000000000000000000000815260040160405180910390fd5b5f5f5f3373ffffffffffffffffffffffffffffffffffffffff1673ffffffffffffffffffffffffffffffffffffffff1681526020019081526020015f206004015f6101000a81548160ff0219169083151502179055503373ffffffffffffffffffffffffffffffffffffffff167fc90df498d0538be4aa86812c573910759ce508c68778eb31883490c274f508b060405160405180910390a2565b5f602052805f5260405f205f91509050805f015f9054906101000a900473ffffffffffffffffffffffffffffffffffffffff16908060010180546104a29061183d565b80601f01602080910402602001604051908101604052809291908181526020018280546104ce9061183d565b80156105195780601f106104f057610100808354040283529160200191610519565b820191905f5260205f20905b8154815290600101906020018083116104fc57829003601f168201915b505050505090806002015490806003015490806004015f9054906101000a900460ff16905085565b60015f3373ffffffffffffffffffffffffffffffffffffffff1673ffffffffffffffffffffffffffffffffffffffff1681526020019081526020015f205f9054906101000a900460ff166105c1576040517faba4733900000000000000000000000000000000000000000000000000000000815260040160405180910390fd5b5f5f3373ffffffffffffffffffffffffffffffffffffffff1673ffffffffffffffffffffffffffffffffffffffff1681526020019081526020015f206004015f9054906101000a900460ff1615610644576040517ff9be60a200000000000000000000000000000000000000000000000000000000815260040160405180910390fd5b60015f5f3373ffffffffffffffffffffffffffffffffffffffff1673ffffffffffffffffffffffffffffffffffffffff1681526020019081526020015f206004015f6101000a81548160ff0219169083151502179055503373ffffffffffffffffffffffffffffffffffffffff167f8a234315edfc6e17eb82d75266a165e948efa13111d7591c3180f750808ea62b60405160405180910390a2565b6060600280548060200260200160405190810160405280929190818152602001828054801561076157602002820191905f5260205f20905b815f9054906101000a900473ffffffffffffffffffffffffffffffffffffffff1673ffffffffffffffffffffffffffffffffffffffff1681526020019060010190808311610718575b5050505050905090565b5f60015f8373ffffffffffffffffffffffffffffffffffffffff1673ffffffffffffffffffffffffffffffffffffffff1681526020019081526020015f205f9054906101000a900460ff166107ec576040517faba4733900000000000000000000000000000000000000000000000000000000815260040160405180910390fd5b5f5f8373ffffffffffffffffffffffffffffffffffffffff1673ffffffffffffffffffffffffffffffffffffffff1681526020019081526020015f206004015f9054906101000a900460ff169050919050565b60045f9054906101000a900473ffffffffffffffffffffffffffffffffffffffff1673ffffffffffffffffffffffffffffffffffffffff163373ffffffffffffffffffffffffffffffffffffffff16146108ce576040517f08c379a00000000000000000000000000000000000000000000000000000000081526004016108c5906118b7565b60405180910390fd5b60015f8273ffffffffffffffffffffffffffffffffffffffff1673ffffffffffffffffffffffffffffffffffffffff1681526020019081526020015f205f9054906101000a900460ff1661094e576040517faba4733900000000000000000000000000000000000000000000000000000000815260040160405180910390fd5b5f5f8273ffffffffffffffffffffffffffffffffffffffff1673ffffffffffffffffffffffffffffffffffffffff1681526020019081526020015f206004015f9054906101000a900460ff16156109d1576040517ff9be60a200000000000000000000000000000000000000000000000000000000815260040160405180910390fd5b60015f5f8373ffffffffffffffffffffffffffffffffffffffff1673ffffffffffffffffffffffffffffffffffffffff1681526020019081526020015f206004015f6101000a81548160ff0219169083151502179055508073ffffffffffffffffffffffffffffffffffffffff167f8a234315edfc6e17eb82d75266a165e948efa13111d7591c3180f750808ea62b60405160405180910390a250565b60045f9054906101000a900473ffffffffffffffffffffffffffffffffffffffff1673ffffffffffffffffffffffffffffffffffffffff163373ffffffffffffffffffffffffffffffffffffffff1603610af4576040517f0edf660200000000000000000000000000000000000000000000000000000000815260040160405180910390fd5b60015f3373ffffffffffffffffffffffffffffffffffffffff1673ffffffffffffffffffffffffffffffffffffffff1681526020019081526020015f205f9054906101000a900460ff1615610b75576040517f3a81d6fc00000000000000000000000000000000000000000000000000000000815260040160405180910390fd5b5f8383905003610bb1576040517f430f13b300000000000000000000000000000000000000000000000000000000815260040160405180910390fd5b5f5f1b8103610bec576040517fbcecb64a00000000000000000000000000000000000000000000000000000000815260040160405180910390fd5b6040518060a001604052803373ffffffffffffffffffffffffffffffffffffffff16815260200184848080601f0160208091040260200160405190810160405280939291908181526020018383808284375f81840152601f19601f820116905080830192505050505050508152602001828152602001428152602001600115158152505f5f3373ffffffffffffffffffffffffffffffffffffffff1673ffffffffffffffffffffffffffffffffffffffff1681526020019081526020015f205f820151815f015f6101000a81548173ffffffffffffffffffffffffffffffffffffffff021916908373ffffffffffffffffffffffffffffffffffffffff1602179055506020820151816001019081610d049190611ab3565b5060408201518160020155606082015181600301556080820151816004015f6101000a81548160ff0219169083151502179055509050506001805f3373ffffffffffffffffffffffffffffffffffffffff1673ffffffffffffffffffffffffffffffffffffffff1681526020019081526020015f205f6101000a81548160ff021916908315150217905550600233908060018154018082558091505060019003905f5260205f20015f9091909190916101000a81548173ffffffffffffffffffffffffffffffffffffffff021916908373ffffffffffffffffffffffffffffffffffffffff16021790555060035f815480929190610e0190611baf565b91905055503373ffffffffffffffffffffffffffffffffffffffff167f783e607e94efcb9adce3489c806008ddc378d784ae22a1f801458720054325a28484604051610e4e929190611c30565b60405180910390a2505050565b6001602052805f5260405f205f915054906101000a900460ff1681565b610e806112b8565b60015f8373ffffffffffffffffffffffffffffffffffffffff1673ffffffffffffffffffffffffffffffffffffffff1681526020019081526020015f205f9054906101000a900460ff16610f00576040517faba4733900000000000000000000000000000000000000000000000000000000815260040160405180910390fd5b5f5f8373ffffffffffffffffffffffffffffffffffffffff1673ffffffffffffffffffffffffffffffffffffffff1681526020019081526020015f206040518060a00160405290815f82015f9054906101000a900473ffffffffffffffffffffffffffffffffffffffff1673ffffffffffffffffffffffffffffffffffffffff1673ffffffffffffffffffffffffffffffffffffffff168152602001600182018054610fab9061183d565b80601f0160208091040260200160405190810160405280929190818152602001828054610fd79061183d565b80156110225780601f10610ff957610100808354040283529160200191611022565b820191905f5260205f20905b81548152906001019060200180831161100557829003601f168201915b505050505081526020016002820154815260200160038201548152602001600482015f9054906101000a900460ff1615151515815250509050919050565b60035481565b60045f9054906101000a900473ffffffffffffffffffffffffffffffffffffffff1673ffffffffffffffffffffffffffffffffffffffff163373ffffffffffffffffffffffffffffffffffffffff16146110f5576040517f08c379a00000000000000000000000000000000000000000000000000000000081526004016110ec906118b7565b60405180910390fd5b60015f8273ffffffffffffffffffffffffffffffffffffffff1673ffffffffffffffffffffffffffffffffffffffff1681526020019081526020015f205f9054906101000a900460ff16611175576040517faba4733900000000000000000000000000000000000000000000000000000000815260040160405180910390fd5b5f5f8273ffffffffffffffffffffffffffffffffffffffff1673ffffffffffffffffffffffffffffffffffffffff1681526020019081526020015f206004015f9054906101000a900460ff166111f7576040517f232990cb00000000000000000000000000000000000000000000000000000000815260040160405180910390fd5b5f5f5f8373ffffffffffffffffffffffffffffffffffffffff1673ffffffffffffffffffffffffffffffffffffffff1681526020019081526020015f206004015f6101000a81548160ff0219169083151502179055508073ffffffffffffffffffffffffffffffffffffffff167fc90df498d0538be4aa86812c573910759ce508c68778eb31883490c274f508b060405160405180910390a250565b60045f9054906101000a900473ffffffffffffffffffffffffffffffffffffffff1681565b6040518060a001604052805f73ffffffffffffffffffffffffffffffffffffffff168152602001606081526020015f81526020015f81526020015f151581525090565b5f5ffd5b5f5ffd5b5f819050919050565b61131581611303565b811461131f575f5ffd5b50565b5f813590506113308161130c565b92915050565b5f6020828403121561134b5761134a6112fb565b5b5f61135884828501611322565b91505092915050565b5f73ffffffffffffffffffffffffffffffffffffffff82169050919050565b5f61138a82611361565b9050919050565b61139a81611380565b82525050565b5f6020820190506113b35f830184611391565b92915050565b6113c281611380565b81146113cc575f5ffd5b50565b5f813590506113dd816113b9565b92915050565b5f602082840312156113f8576113f76112fb565b5b5f611405848285016113cf565b91505092915050565b5f81519050919050565b5f82825260208201905092915050565b8281835e5f83830152505050565b5f601f19601f8301169050919050565b5f6114508261140e565b61145a8185611418565b935061146a818560208601611428565b61147381611436565b840191505092915050565b5f819050919050565b6114908161147e565b82525050565b61149f81611303565b82525050565b5f8115159050919050565b6114b9816114a5565b82525050565b5f60a0820190506114d25f830188611391565b81810360208301526114e48187611446565b90506114f36040830186611487565b6115006060830185611496565b61150d60808301846114b0565b9695505050505050565b5f81519050919050565b5f82825260208201905092915050565b5f819050602082019050919050565b61154981611380565b82525050565b5f61155a8383611540565b60208301905092915050565b5f602082019050919050565b5f61157c82611517565b6115868185611521565b935061159183611531565b805f5b838110156115c15781516115a8888261154f565b97506115b383611566565b925050600181019050611594565b5085935050505092915050565b5f6020820190508181035f8301526115e68184611572565b905092915050565b5f6020820190506116015f8301846114b0565b92915050565b5f5ffd5b5f5ffd5b5f5ffd5b5f5f83601f84011261162857611627611607565b5b8235905067ffffffffffffffff8111156116455761164461160b565b5b6020830191508360018202830111156116615761166061160f565b5b9250929050565b6116718161147e565b811461167b575f5ffd5b50565b5f8135905061168c81611668565b92915050565b5f5f5f604084860312156116a9576116a86112fb565b5b5f84013567ffffffffffffffff8111156116c6576116c56112ff565b5b6116d286828701611613565b935093505060206116e58682870161167e565b9150509250925092565b5f82825260208201905092915050565b5f6117098261140e565b61171381856116ef565b9350611723818560208601611428565b61172c81611436565b840191505092915050565b6117408161147e565b82525050565b61174f81611303565b82525050565b61175e816114a5565b82525050565b5f60a083015f8301516117795f860182611540565b506020830151848203602086015261179182826116ff565b91505060408301516117a66040860182611737565b5060608301516117b96060860182611746565b5060808301516117cc6080860182611755565b508091505092915050565b5f6020820190508181035f8301526117ef8184611764565b905092915050565b5f60208201905061180a5f830184611496565b92915050565b7f4e487b71000000000000000000000000000000000000000000000000000000005f52602260045260245ffd5b5f600282049050600182168061185457607f821691505b60208210810361186757611866611810565b5b50919050565b7f4e6f742061646d696e00000000000000000000000000000000000000000000005f82015250565b5f6118a1600983611418565b91506118ac8261186d565b602082019050919050565b5f6020820190508181035f8301526118ce81611895565b9050919050565b7f4e487b71000000000000000000000000000000000000000000000000000000005f52604160045260245ffd5b5f819050815f5260205f209050919050565b5f6020601f8301049050919050565b5f82821b905092915050565b5f6008830261195e7fffffffffffffffffffffffffffffffffffffffffffffffffffffffffffffffff82611923565b6119688683611923565b95508019841693508086168417925050509392505050565b5f819050919050565b5f6119a361199e61199984611303565b611980565b611303565b9050919050565b5f819050919050565b6119bc83611989565b6119d06119c8826119aa565b84845461192f565b825550505050565b5f5f905090565b6119e76119d8565b6119f28184846119b3565b505050565b5f5b82811015611a1857611a0d5f8284016119df565b6001810190506119f9565b505050565b601f821115611a6b5782821115611a6a57611a3781611902565b611a4083611914565b611a4985611914565b6020861015611a56575f90505b808301611a65828403826119f7565b505050505b5b505050565b5f82821c905092915050565b5f611a8b5f1984600802611a70565b1980831691505092915050565b5f611aa38383611a7c565b9150826002028217905092915050565b611abc8261140e565b67ffffffffffffffff811115611ad557611ad46118d5565b5b611adf825461183d565b611aea828285611a1d565b5f60209050601f831160018114611b1b575f8415611b09578287015190505b611b138582611a98565b865550611b7a565b601f198416611b2986611902565b5f5b82811015611b5057848901518255600182019150602085019450602081019050611b2b565b86831015611b6d5784890151611b69601f891682611a7c565b8355505b6001600288020188555050505b505050505050565b7f4e487b71000000000000000000000000000000000000000000000000000000005f52601160045260245ffd5b5f611bb982611303565b91507fffffffffffffffffffffffffffffffffffffffffffffffffffffffffffffffff8203611beb57611bea611b82565b5b600182019050919050565b828183375f83830152505050565b5f611c0f8385611418565b9350611c1c838584611bf6565b611c2583611436565b840190509392505050565b5f6020820190508181035f830152611c49818486611c04565b9050939250505056fea264697066735822122066349724576e178be2d1c95925a996af900c155b521da5740da7154da4431a1164736f6c63430008210033","linkReferences":{}},"methodIdentifiers":{"admin()":"f851a440","adminDeactivate(address)":"f1d2fd78","adminReactivate(address)":"ac467e52","deactivateOrganization()":"57c831b0","getOrganization(address)":"d2c30a6d","getOrganizations()":"9754a3a8","isActive(address)":"9f8a13d7","isRegistered(address)":"c3c5a547","organizationCount()":"f1c62104","organizationList(uint256)":"2e498df5","organizations(address)":"5a1f7406","reactivateOrganization()":"93d17529","registerOrganization(string,bytes32)":"bfde380d"},"id":20}