{"abi":[{"type":"constructor","inputs":[{"name":"attestAddr","type":"address","internalType":"address"},{"name":"threatAddr","type":"address","internalType":"address"},{"name":"orgAddr","type":"address","internalType":"address"}],"stateMutability":"nonpayable"},{"type":"function","name":"attestationEngine","inputs":[],"outputs":[{"name":"","type":"address","internalType":"contract AttestationEngine"}],"stateMutability":"view"},{"type":"function","name":"orgRegistry","inputs":[],"outputs":[{"name":"","type":"address","internalType":"contract OrgRegistry"}],"stateMutability":"view"},{"type":"function","name":"reputationScore","inputs":[{"name":"","type":"address","internalType":"address"}],"outputs":[{"name":"","type":"uint256","internalType":"uint256"}],"stateMutability":"view"},{"type":"function","name":"threatRegistry","inputs":[],"outputs":[{"name":"","type":"address","internalType":"contract ThreatRegistry"}],"stateMutability":"view"},{"type":"function","name":"updateReputationFromThreat","inputs":[{"name":"threatId","type":"uint256","internalType":"uint256"}],"outputs":[],"stateMutability":"nonpayable"},{"type":"event","name":"ReputationUpdated","inputs":[{"name":"org","type":"address","indexed":true,"internalType":"address"},{"name":"newScore","type":"uint256","indexed":false,"internalType":"uint256"}],"anonymous":false},{"type":"error","name":"NotRegisteredOrganization","inputs":[]}],"bytecode":{"object":"0x608060405234801561000f575f5ffd5b50604051610d6a380380610d6a83398181016040528101906100319190610156565b825f5f6101000a81548173ffffffffffffffffffffffffffffffffffffffff021916908373ffffffffffffffffffffffffffffffffffffffff1602179055508160015f6101000a81548173ffffffffffffffffffffffffffffffffffffffff021916908373ffffffffffffffffffffffffffffffffffffffff1602179055508060025f6101000a81548173ffffffffffffffffffffffffffffffffffffffff021916908373ffffffffffffffffffffffffffffffffffffffff1602179055505050506101a6565b5f5ffd5b5f73ffffffffffffffffffffffffffffffffffffffff82169050919050565b5f610125826100fc565b9050919050565b6101358161011b565b811461013f575f5ffd5b50565b5f815190506101508161012c565b92915050565b5f5f5f6060848603121561016d5761016c6100f8565b5b5f61017a86828701610142565b935050602061018b86828701610142565b925050604061019c86828701610142565b9150509250925092565b610bb7806101b35f395ff3fe608060405234801561000f575f5ffd5b5060043610610055575f3560e01c80630d728240146100595780632b7db9781461007757806350d061cb14610093578063573f239c146100c35780639dd04ca0146100e1575b5f5ffd5b6100616100ff565b60405161006e9190610606565b60405180910390f35b610091600480360381019061008c9190610663565b610124565b005b6100ad60048036038101906100a891906106c9565b61052e565b6040516100ba9190610703565b60405180910390f35b6100cb610543565b6040516100d8919061073c565b60405180910390f35b6100e9610568565b6040516100f69190610775565b60405180910390f35b60015f9054906101000a900473ffffffffffffffffffffffffffffffffffffffff1681565b5f5f5f5f9054906101000a900473ffffffffffffffffffffffffffffffffffffffff1673ffffffffffffffffffffffffffffffffffffffff1663ad7ff3f0846040518263ffffffff1660e01b815260040161017f9190610703565b6040805180830381865afa158015610199573d5f5f3e3d5ffd5b505050506040513d601f19601f820116820180604052508101906101bd91906107a2565b915091505f5f5f5f5f5f5f5f60015f9054906101000a900473ffffffffffffffffffffffffffffffffffffffff1673ffffffffffffffffffffffffffffffffffffffff166351dc17428c6040518263ffffffff1660e01b81526004016102239190610703565b5f60405180830381865afa15801561023d573d5f5f3e3d5ffd5b505050506040513d5f823e3d601f19601f8201168201806040525081019061026591906109ce565b9750975097509750975097509750975060025f9054906101000a900473ffffffffffffffffffffffffffffffffffffffff1673ffffffffffffffffffffffffffffffffffffffff1663c3c5a547886040518263ffffffff1660e01b81526004016102cf9190610aaa565b602060405180830381865afa1580156102ea573d5f5f3e3d5ffd5b505050506040513d601f19601f8201168201806040525081019061030e9190610ac3565b610344576040517faa3aeb6500000000000000000000000000000000000000000000000000000000815260040160405180910390fd5b888a11156103a557600a60035f8973ffffffffffffffffffffffffffffffffffffffff1673ffffffffffffffffffffffffffffffffffffffff1681526020019081526020015f205f8282546103999190610b1b565b92505081905550610496565b89891115610495575f60035f8973ffffffffffffffffffffffffffffffffffffffff1673ffffffffffffffffffffffffffffffffffffffff1681526020019081526020015f20549050600581111561045057600560035f8a73ffffffffffffffffffffffffffffffffffffffff1673ffffffffffffffffffffffffffffffffffffffff1681526020019081526020015f205f8282546104449190610b4e565b92505081905550610493565b5f60035f8a73ffffffffffffffffffffffffffffffffffffffff1673ffffffffffffffffffffffffffffffffffffffff1681526020019081526020015f20819055505b505b5b8673ffffffffffffffffffffffffffffffffffffffff167ffc577563f1b9a0461e24abef1e1fcc0d33d3d881f20b5df6dda59de4aae2c82160035f8a73ffffffffffffffffffffffffffffffffffffffff1673ffffffffffffffffffffffffffffffffffffffff1681526020019081526020015f20546040516105199190610703565b60405180910390a25050505050505050505050565b6003602052805f5260405f205f915090505481565b60025f9054906101000a900473ffffffffffffffffffffffffffffffffffffffff1681565b5f5f9054906101000a900473ffffffffffffffffffffffffffffffffffffffff1681565b5f73ffffffffffffffffffffffffffffffffffffffff82169050919050565b5f819050919050565b5f6105ce6105c96105c48461058c565b6105ab565b61058c565b9050919050565b5f6105df826105b4565b9050919050565b5f6105f0826105d5565b9050919050565b610600816105e6565b82525050565b5f6020820190506106195f8301846105f7565b92915050565b5f604051905090565b5f5ffd5b5f5ffd5b5f819050919050565b61064281610630565b811461064c575f5ffd5b50565b5f8135905061065d81610639565b92915050565b5f6020828403121561067857610677610628565b5b5f6106858482850161064f565b91505092915050565b5f6106988261058c565b9050919050565b6106a88161068e565b81146106b2575f5ffd5b50565b5f813590506106c38161069f565b92915050565b5f602082840312156106de576106dd610628565b5b5f6106eb848285016106b5565b91505092915050565b6106fd81610630565b82525050565b5f6020820190506107165f8301846106f4565b92915050565b5f610726826105d5565b9050919050565b6107368161071c565b82525050565b5f60208201905061074f5f83018461072d565b92915050565b5f61075f826105d5565b9050919050565b61076f81610755565b82525050565b5f6020820190506107885f830184610766565b92915050565b5f8151905061079c81610639565b92915050565b5f5f604083850312156107b8576107b7610628565b5b5f6107c58582860161078e565b92505060206107d68582860161078e565b9150509250929050565b5f815190506107ee8161069f565b92915050565b5f819050919050565b610806816107f4565b8114610810575f5ffd5b50565b5f81519050610821816107fd565b92915050565b5f5ffd5b5f5ffd5b5f601f19601f8301169050919050565b7f4e487b71000000000000000000000000000000000000000000000000000000005f52604160045260245ffd5b6108758261082f565b810181811067ffffffffffffffff821117156108945761089361083f565b5b80604052505050565b5f6108a661061f565b90506108b2828261086c565b919050565b5f67ffffffffffffffff8211156108d1576108d061083f565b5b6108da8261082f565b9050602081019050919050565b8281835e5f83830152505050565b5f610907610902846108b7565b61089d565b9050828152602081018484840111156109235761092261082b565b5b61092e8482856108e7565b509392505050565b5f82601f83011261094a57610949610827565b5b815161095a8482602086016108f5565b91505092915050565b5f60ff82169050919050565b61097881610963565b8114610982575f5ffd5b50565b5f815190506109938161096f565b92915050565b5f8115159050919050565b6109ad81610999565b81146109b7575f5ffd5b50565b5f815190506109c8816109a4565b92915050565b5f5f5f5f5f5f5f5f610100898b0312156109eb576109ea610628565b5b5f6109f88b828c0161078e565b9850506020610a098b828c016107e0565b9750506040610a1a8b828c01610813565b965050606089015167ffffffffffffffff811115610a3b57610a3a61062c565b5b610a478b828c01610936565b9550506080610a588b828c01610985565b94505060a0610a698b828c01610985565b93505060c0610a7a8b828c0161078e565b92505060e0610a8b8b828c016109ba565b9150509295985092959890939650565b610aa48161068e565b82525050565b5f602082019050610abd5f830184610a9b565b92915050565b5f60208284031215610ad857610ad7610628565b5b5f610ae5848285016109ba565b91505092915050565b7f4e487b71000000000000000000000000000000000000000000000000000000005f52601160045260245ffd5b5f610b2582610630565b9150610b3083610630565b9250828201905080821115610b4857610b47610aee565b5b92915050565b5f610b5882610630565b9150610b6383610630565b9250828203905081811115610b7b57610b7a610aee565b5b9291505056fea26469706673582212209881cad6f5eee79941d7843afbc3131e302496e96aa997816d546c64418bdf7864736f6c63430008210033","linkReferences":{}},"methodIdentifiers":{"attestationEngine()":"9dd04ca0","orgRegistry()":"573f239c","reputationScore(address)":"50d061cb","threatRegistry()":"0d728240","updateReputationFromThreat(uint256)":"2b7db978"},"id":18}