{"abi":[{"type":"constructor","inputs":[{"name":"attestAddr","type":"address","internalType":"address"},{"name":"threatAddr","type":"address","internalType":"address"},{"name":"orgAddr","type":"address","internalType":"address"}],"stateMutability":"nonpayable"},{"type":"function","name":"attestationEngine","inputs":[],"outputs":[{"name":"","type":"address","internalType":"contract AttestationEngine"}],"stateMutability":"view"},{"type":"function","name":"orgRegistry","inputs":[],"outputs":[{"name":"","type":"address","internalType":"contract OrgRegistry"}],"stateMutability":"view"},{"type":"function","name":"reputationProcessed","inputs":[{"name":"","type":"uint256","internalType":"uint256"}],"outputs":[{"name":"","type":"bool","internalType":"bool"}],"stateMutability":"view"},{"type":"function","name":"reputationScore","inputs":[{"name":"","type":"address","internalType":"address"}],"outputs":[{"name":"","type":"uint256","internalType":"uint256"}],"stateMutability":"view"},{"type":"function","name":"threatRegistry","inputs":[],"outputs":[{"name":"","type":"address","internalType":"contract ThreatRegistry"}],"stateMutability":"view"},{"type":"function","name":"updateReputationFromThreat","inputs":[{"name":"threatId","type":"uint256","internalType":"uint256"}],"outputs":[],"stateMutability":"nonpayable"},{"type":"event","name":"ReputationUpdated","inputs":[{"name":"org","type":"address","indexed":true,"internalType":"address"},{"name":"newScore","type":"uint256","indexed":false,"internalType":"uint256"}],"anonymous":false},{"type":"error","name":"NotRegisteredOrganization","inputs":[]},{"type":"error","name":"ReputationAlreadyProcessed","inputs":[]},{"type":"error","name":"ThreatNotResolved","inputs":[]}],"bytecode":{"object":"0x608060405234801561000f575f5ffd5b50604051610f43380380610f4383398181016040528101906100319190610156565b825f5f6101000a81548173ffffffffffffffffffffffffffffffffffffffff021916908373ffffffffffffffffffffffffffffffffffffffff1602179055508160015f6101000a81548173ffffffffffffffffffffffffffffffffffffffff021916908373ffffffffffffffffffffffffffffffffffffffff1602179055508060025f6101000a81548173ffffffffffffffffffffffffffffffffffffffff021916908373ffffffffffffffffffffffffffffffffffffffff1602179055505050506101a6565b5f5ffd5b5f73ffffffffffffffffffffffffffffffffffffffff82169050919050565b5f610125826100fc565b9050919050565b6101358161011b565b811461013f575f5ffd5b50565b5f815190506101508161012c565b92915050565b5f5f5f6060848603121561016d5761016c6100f8565b5b5f61017a86828701610142565b935050602061018b86828701610142565b925050604061019c86828701610142565b9150509250925092565b610d90806101b35f395ff3fe608060405234801561000f575f5ffd5b5060043610610060575f3560e01c80630d728240146100645780632b7db978146100825780634f1d472c1461009e57806350d061cb146100ce578063573f239c146100fe5780639dd04ca01461011c575b5f5ffd5b61006c61013a565b6040516100799190610776565b60405180910390f35b61009c600480360381019061009791906107d3565b61015f565b005b6100b860048036038101906100b391906107d3565b610681565b6040516100c59190610818565b60405180910390f35b6100e860048036038101906100e3919061086c565b61069e565b6040516100f591906108a6565b60405180910390f35b6101066106b3565b60405161011391906108df565b60405180910390f35b6101246106d8565b6040516101319190610918565b60405180910390f35b60015f9054906101000a900473ffffffffffffffffffffffffffffffffffffffff1681565b60045f8281526020019081526020015f205f9054906101000a900460ff16156101b4576040517f0c1aa5c200000000000000000000000000000000000000000000000000000000815260040160405180910390fd5b5f5f5f5f5f5f5f5f60015f9054906101000a900473ffffffffffffffffffffffffffffffffffffffff1673ffffffffffffffffffffffffffffffffffffffff166351dc17428a6040518263ffffffff1660e01b815260040161021691906108a6565b5f60405180830381865afa158015610230573d5f5f3e3d5ffd5b505050506040513d5f823e3d601f19601f820116820180604052508101906102589190610b28565b9750975097509750975097509750975080156102a0576040517f3fb8d2c700000000000000000000000000000000000000000000000000000000815260040160405180910390fd5b60025f9054906101000a900473ffffffffffffffffffffffffffffffffffffffff1673ffffffffffffffffffffffffffffffffffffffff1663c3c5a547886040518263ffffffff1660e01b81526004016102fa9190610c04565b602060405180830381865afa158015610315573d5f5f3e3d5ffd5b505050506040513d601f19601f820116820180604052508101906103399190610c1d565b61036f576040517faa3aeb6500000000000000000000000000000000000000000000000000000000815260040160405180910390fd5b5f5f5f5f9054906101000a900473ffffffffffffffffffffffffffffffffffffffff1673ffffffffffffffffffffffffffffffffffffffff1663ad7ff3f08c6040518263ffffffff1660e01b81526004016103ca91906108a6565b6040805180830381865afa1580156103e4573d5f5f3e3d5ffd5b505050506040513d601f19601f820116820180604052508101906104089190610c48565b915091505f600a90505f6005905060028860ff16036104445760028261042e9190610cb3565b915060028161043d9190610cb3565b905061046f565b60038860ff161061046e5760038261045c9190610cb3565b915060038161046b9190610cb3565b90505b5b828411156104cf578160035f8d73ffffffffffffffffffffffffffffffffffffffff1673ffffffffffffffffffffffffffffffffffffffff1681526020019081526020015f205f8282546104c39190610cf4565b925050819055506105be565b838311156105bd575f60035f8d73ffffffffffffffffffffffffffffffffffffffff1673ffffffffffffffffffffffffffffffffffffffff1681526020019081526020015f2054905081811115610578578160035f8e73ffffffffffffffffffffffffffffffffffffffff1673ffffffffffffffffffffffffffffffffffffffff1681526020019081526020015f205f82825461056c9190610d27565b925050819055506105bb565b5f60035f8e73ffffffffffffffffffffffffffffffffffffffff1673ffffffffffffffffffffffffffffffffffffffff1681526020019081526020015f20819055505b505b5b600160045f8f81526020019081526020015f205f6101000a81548160ff0219169083151502179055508a73ffffffffffffffffffffffffffffffffffffffff167ffc577563f1b9a0461e24abef1e1fcc0d33d3d881f20b5df6dda59de4aae2c82160035f8e73ffffffffffffffffffffffffffffffffffffffff1673ffffffffffffffffffffffffffffffffffffffff1681526020019081526020015f205460405161066a91906108a6565b60405180910390a250505050505050505050505050565b6004602052805f5260405f205f915054906101000a900460ff1681565b6003602052805f5260405f205f915090505481565b60025f9054906101000a900473ffffffffffffffffffffffffffffffffffffffff1681565b5f5f9054906101000a900473ffffffffffffffffffffffffffffffffffffffff1681565b5f73ffffffffffffffffffffffffffffffffffffffff82169050919050565b5f819050919050565b5f61073e610739610734846106fc565b61071b565b6106fc565b9050919050565b5f61074f82610724565b9050919050565b5f61076082610745565b9050919050565b61077081610756565b82525050565b5f6020820190506107895f830184610767565b92915050565b5f604051905090565b5f5ffd5b5f5ffd5b5f819050919050565b6107b2816107a0565b81146107bc575f5ffd5b50565b5f813590506107cd816107a9565b92915050565b5f602082840312156107e8576107e7610798565b5b5f6107f5848285016107bf565b91505092915050565b5f8115159050919050565b610812816107fe565b82525050565b5f60208201905061082b5f830184610809565b92915050565b5f61083b826106fc565b9050919050565b61084b81610831565b8114610855575f5ffd5b50565b5f8135905061086681610842565b92915050565b5f6020828403121561088157610880610798565b5b5f61088e84828501610858565b91505092915050565b6108a0816107a0565b82525050565b5f6020820190506108b95f830184610897565b92915050565b5f6108c982610745565b9050919050565b6108d9816108bf565b82525050565b5f6020820190506108f25f8301846108d0565b92915050565b5f61090282610745565b9050919050565b610912816108f8565b82525050565b5f60208201905061092b5f830184610909565b92915050565b5f8151905061093f816107a9565b92915050565b5f8151905061095381610842565b92915050565b5f819050919050565b61096b81610959565b8114610975575f5ffd5b50565b5f8151905061098681610962565b92915050565b5f5ffd5b5f5ffd5b5f601f19601f8301169050919050565b7f4e487b71000000000000000000000000000000000000000000000000000000005f52604160045260245ffd5b6109da82610994565b810181811067ffffffffffffffff821117156109f9576109f86109a4565b5b80604052505050565b5f610a0b61078f565b9050610a1782826109d1565b919050565b5f67ffffffffffffffff821115610a3657610a356109a4565b5b610a3f82610994565b9050602081019050919050565b8281835e5f83830152505050565b5f610a6c610a6784610a1c565b610a02565b905082815260208101848484011115610a8857610a87610990565b5b610a93848285610a4c565b509392505050565b5f82601f830112610aaf57610aae61098c565b5b8151610abf848260208601610a5a565b91505092915050565b5f60ff82169050919050565b610add81610ac8565b8114610ae7575f5ffd5b50565b5f81519050610af881610ad4565b92915050565b610b07816107fe565b8114610b11575f5ffd5b50565b5f81519050610b2281610afe565b92915050565b5f5f5f5f5f5f5f5f610100898b031215610b4557610b44610798565b5b5f610b528b828c01610931565b9850506020610b638b828c01610945565b9750506040610b748b828c01610978565b965050606089015167ffffffffffffffff811115610b9557610b9461079c565b5b610ba18b828c01610a9b565b9550506080610bb28b828c01610aea565b94505060a0610bc38b828c01610aea565b93505060c0610bd48b828c01610931565b92505060e0610be58b828c01610b14565b9150509295985092959890939650565b610bfe81610831565b82525050565b5f602082019050610c175f830184610bf5565b92915050565b5f60208284031215610c3257610c31610798565b5b5f610c3f84828501610b14565b91505092915050565b5f5f60408385031215610c5e57610c5d610798565b5b5f610c6b85828601610931565b9250506020610c7c85828601610931565b9150509250929050565b7f4e487b71000000000000000000000000000000000000000000000000000000005f52601160045260245ffd5b5f610cbd826107a0565b9150610cc8836107a0565b9250828202610cd6816107a0565b91508282048414831517610ced57610cec610c86565b5b5092915050565b5f610cfe826107a0565b9150610d09836107a0565b9250828201905080821115610d2157610d20610c86565b5b92915050565b5f610d31826107a0565b9150610d3c836107a0565b9250828203905081811115610d5457610d53610c86565b5b9291505056fea2646970667358221220265c6e7e7837f94769030c45df40f9af16b1c6cbbdb55b47d56d45d5655fa33864736f6c63430008210033","linkReferences":{}},"methodIdentifiers":{"attestationEngine()":"9dd04ca0","orgRegistry()":"573f239c","reputationProcessed(uint256)":"4f1d472c","reputationScore(address)":"50d061cb","threatRegistry()":"0d728240","updateReputationFromThreat(uint256)":"2b7db978"},"id":18}