{"abi":[{"type":"constructor","inputs":[{"name":"registryAddress","type":"address","internalType":"address"}],"stateMutability":"nonpayable"},{"type":"function","name":"orgRegistry","inputs":[],"outputs":[{"name":"","type":"address","internalType":"contract OrgRegistry"}],"stateMutability":"view"},{"type":"function","name":"submitThreat","inputs":[{"name":"payloadHash","type":"bytes32","internalType":"bytes32"},{"name":"storagePointer","type":"string","internalType":"string"},{"name":"severity","type":"uint8","internalType":"uint8"},{"name":"category","type":"uint8","internalType":"uint8"}],"outputs":[],"stateMutability":"nonpayable"},{"type":"function","name":"threatCounter","inputs":[],"outputs":[{"name":"","type":"uint256","internalType":"uint256"}],"stateMutability":"view"},{"type":"function","name":"threats","inputs":[{"name":"","type":"uint256","internalType":"uint256"}],"outputs":[{"name":"id","type":"uint256","internalType":"uint256"},{"name":"submitter","type":"address","internalType":"address"},{"name":"payloadHash","type":"bytes32","internalType":"bytes32"},{"name":"storagePointer","type":"string","internalType":"string"},{"name":"severity","type":"uint8","internalType":"uint8"},{"name":"category","type":"uint8","internalType":"uint8"},{"name":"submittedAt","type":"uint256","internalType":"uint256"},{"name":"active","type":"bool","internalType":"bool"}],"stateMutability":"view"},{"type":"event","name":"ThreatSubmitted","inputs":[{"name":"id","type":"uint256","indexed":true,"internalType":"uint256"},{"name":"submitter","type":"address","indexed":true,"internalType":"address"},{"name":"severity","type":"uint8","indexed":false,"internalType":"uint8"},{"name":"category","type":"uint8","indexed":false,"internalType":"uint8"}],"anonymous":false},{"type":"error","name":"NotRegisteredOrganization","inputs":[]},{"type":"error","name":"OrganizationInactive","inputs":[]}],"bytecode":{"object":"0x608060405234801561000f575f5ffd5b50604051610eb4380380610eb4833981810160405281019061003191906100d4565b805f5f6101000a81548173ffffffffffffffffffffffffffffffffffffffff021916908373ffffffffffffffffffffffffffffffffffffffff160217905550506100ff565b5f5ffd5b5f73ffffffffffffffffffffffffffffffffffffffff82169050919050565b5f6100a38261007a565b9050919050565b6100b381610099565b81146100bd575f5ffd5b50565b5f815190506100ce816100aa565b92915050565b5f602082840312156100e9576100e8610076565b5b5f6100f6848285016100c0565b91505092915050565b610da88061010c5f395ff3fe608060405234801561000f575f5ffd5b506004361061004a575f3560e01c80630c0c84ab1461004e57806351dc17421461006a578063573f239c146100a15780636eb143ba146100bf575b5f5ffd5b61006860048036038101906100639190610680565b6100dd565b005b610084600480360381019061007f9190610737565b610476565b604051610098989796959493929190610858565b60405180910390f35b6100a9610584565b6040516100b69190610936565b60405180910390f35b6100c76105a8565b6040516100d4919061094f565b60405180910390f35b5f5f9054906101000a900473ffffffffffffffffffffffffffffffffffffffff1673ffffffffffffffffffffffffffffffffffffffff1663c3c5a547336040518263ffffffff1660e01b81526004016101369190610968565b602060405180830381865afa158015610151573d5f5f3e3d5ffd5b505050506040513d601f19601f8201168201806040525081019061017591906109ab565b6101ab576040517faa3aeb6500000000000000000000000000000000000000000000000000000000815260040160405180910390fd5b5f5f9054906101000a900473ffffffffffffffffffffffffffffffffffffffff1673ffffffffffffffffffffffffffffffffffffffff16639f8a13d7336040518263ffffffff1660e01b81526004016102049190610968565b602060405180830381865afa15801561021f573d5f5f3e3d5ffd5b505050506040513d601f19601f8201168201806040525081019061024391906109ab565b610279576040517f3184e83d00000000000000000000000000000000000000000000000000000000815260040160405180910390fd5b60015f81548092919061028b90610a03565b919050555060405180610100016040528060015481526020013373ffffffffffffffffffffffffffffffffffffffff16815260200186815260200185858080601f0160208091040260200160405190810160405280939291908181526020018383808284375f81840152601f19601f8201169050808301925050505050505081526020018360ff1681526020018260ff1681526020014281526020016001151581525060025f60015481526020019081526020015f205f820151815f01556020820151816001015f6101000a81548173ffffffffffffffffffffffffffffffffffffffff021916908373ffffffffffffffffffffffffffffffffffffffff1602179055506040820151816002015560608201518160030190816103ae9190610c7c565b506080820151816004015f6101000a81548160ff021916908360ff16021790555060a08201518160040160016101000a81548160ff021916908360ff16021790555060c0820151816005015560e0820151816006015f6101000a81548160ff0219169083151502179055509050503373ffffffffffffffffffffffffffffffffffffffff166001547f603b87436cceb19244e3fcbf7da39746c45999a9562d84f2dc31e6f305e4d67d8484604051610467929190610d4b565b60405180910390a35050505050565b6002602052805f5260405f205f91509050805f015490806001015f9054906101000a900473ffffffffffffffffffffffffffffffffffffffff16908060020154908060030180546104c690610aa4565b80601f01602080910402602001604051908101604052809291908181526020018280546104f290610aa4565b801561053d5780601f106105145761010080835404028352916020019161053d565b820191905f5260205f20905b81548152906001019060200180831161052057829003601f168201915b505050505090806004015f9054906101000a900460ff16908060040160019054906101000a900460ff1690806005015490806006015f9054906101000a900460ff16905088565b5f5f9054906101000a900473ffffffffffffffffffffffffffffffffffffffff1681565b60015481565b5f5ffd5b5f5ffd5b5f819050919050565b6105c8816105b6565b81146105d2575f5ffd5b50565b5f813590506105e3816105bf565b92915050565b5f5ffd5b5f5ffd5b5f5ffd5b5f5f83601f84011261060a576106096105e9565b5b8235905067ffffffffffffffff811115610627576106266105ed565b5b602083019150836001820283011115610643576106426105f1565b5b9250929050565b5f60ff82169050919050565b61065f8161064a565b8114610669575f5ffd5b50565b5f8135905061067a81610656565b92915050565b5f5f5f5f5f60808688031215610699576106986105ae565b5b5f6106a6888289016105d5565b955050602086013567ffffffffffffffff8111156106c7576106c66105b2565b5b6106d3888289016105f5565b945094505060406106e68882890161066c565b92505060606106f78882890161066c565b9150509295509295909350565b5f819050919050565b61071681610704565b8114610720575f5ffd5b50565b5f813590506107318161070d565b92915050565b5f6020828403121561074c5761074b6105ae565b5b5f61075984828501610723565b91505092915050565b61076b81610704565b82525050565b5f73ffffffffffffffffffffffffffffffffffffffff82169050919050565b5f61079a82610771565b9050919050565b6107aa81610790565b82525050565b6107b9816105b6565b82525050565b5f81519050919050565b5f82825260208201905092915050565b8281835e5f83830152505050565b5f601f19601f8301169050919050565b5f610801826107bf565b61080b81856107c9565b935061081b8185602086016107d9565b610824816107e7565b840191505092915050565b6108388161064a565b82525050565b5f8115159050919050565b6108528161083e565b82525050565b5f6101008201905061086c5f83018b610762565b610879602083018a6107a1565b61088660408301896107b0565b818103606083015261089881886107f7565b90506108a7608083018761082f565b6108b460a083018661082f565b6108c160c0830185610762565b6108ce60e0830184610849565b9998505050505050505050565b5f819050919050565b5f6108fe6108f96108f484610771565b6108db565b610771565b9050919050565b5f61090f826108e4565b9050919050565b5f61092082610905565b9050919050565b61093081610916565b82525050565b5f6020820190506109495f830184610927565b92915050565b5f6020820190506109625f830184610762565b92915050565b5f60208201905061097b5f8301846107a1565b92915050565b61098a8161083e565b8114610994575f5ffd5b50565b5f815190506109a581610981565b92915050565b5f602082840312156109c0576109bf6105ae565b5b5f6109cd84828501610997565b91505092915050565b7f4e487b71000000000000000000000000000000000000000000000000000000005f52601160045260245ffd5b5f610a0d82610704565b91507fffffffffffffffffffffffffffffffffffffffffffffffffffffffffffffffff8203610a3f57610a3e6109d6565b5b600182019050919050565b7f4e487b71000000000000000000000000000000000000000000000000000000005f52604160045260245ffd5b7f4e487b71000000000000000000000000000000000000000000000000000000005f52602260045260245ffd5b5f6002820490506001821680610abb57607f821691505b602082108103610ace57610acd610a77565b5b50919050565b5f819050815f5260205f209050919050565b5f6020601f8301049050919050565b5f82821b905092915050565b5f60088302610b307fffffffffffffffffffffffffffffffffffffffffffffffffffffffffffffffff82610af5565b610b3a8683610af5565b95508019841693508086168417925050509392505050565b5f610b6c610b67610b6284610704565b6108db565b610704565b9050919050565b5f819050919050565b610b8583610b52565b610b99610b9182610b73565b848454610b01565b825550505050565b5f5f905090565b610bb0610ba1565b610bbb818484610b7c565b505050565b5f5b82811015610be157610bd65f828401610ba8565b600181019050610bc2565b505050565b601f821115610c345782821115610c3357610c0081610ad4565b610c0983610ae6565b610c1285610ae6565b6020861015610c1f575f90505b808301610c2e82840382610bc0565b505050505b5b505050565b5f82821c905092915050565b5f610c545f1984600802610c39565b1980831691505092915050565b5f610c6c8383610c45565b9150826002028217905092915050565b610c85826107bf565b67ffffffffffffffff811115610c9e57610c9d610a4a565b5b610ca88254610aa4565b610cb3828285610be6565b5f60209050601f831160018114610ce4575f8415610cd2578287015190505b610cdc8582610c61565b865550610d43565b601f198416610cf286610ad4565b5f5b82811015610d1957848901518255600182019150602085019450602081019050610cf4565b86831015610d365784890151610d32601f891682610c45565b8355505b6001600288020188555050505b505050505050565b5f604082019050610d5e5f83018561082f565b610d6b602083018461082f565b939250505056fea26469706673582212208cfd04b8fcbcfbf72cd9ac7fa351e57e799edaf485c954d759ae29860aa6a2bf64736f6c63430008210033","linkReferences":{}},"methodIdentifiers":{"orgRegistry()":"573f239c","submitThreat(bytes32,string,uint8,uint8)":"0c0c84ab","threatCounter()":"6eb143ba","threats(uint256)":"51dc1742"},"id":22}