{"abi":[{"type":"constructor","inputs":[{"name":"registryAddress","type":"address","internalType":"address"}],"stateMutability":"nonpayable"},{"type":"function","name":"orgRegistry","inputs":[],"outputs":[{"name":"","type":"address","internalType":"contract OrgRegistry"}],"stateMutability":"view"},{"type":"function","name":"resolveThreat","inputs":[{"name":"threatId","type":"uint256","internalType":"uint256"}],"outputs":[],"stateMutability":"nonpayable"},{"type":"function","name":"submitThreat","inputs":[{"name":"payloadHash","type":"bytes32","internalType":"bytes32"},{"name":"storagePointer","type":"string","internalType":"string"},{"name":"severity","type":"uint8","internalType":"uint8"},{"name":"category","type":"uint8","internalType":"uint8"}],"outputs":[],"stateMutability":"nonpayable"},{"type":"function","name":"threatCounter","inputs":[],"outputs":[{"name":"","type":"uint256","internalType":"uint256"}],"stateMutability":"view"},{"type":"function","name":"threats","inputs":[{"name":"","type":"uint256","internalType":"uint256"}],"outputs":[{"name":"id","type":"uint256","internalType":"uint256"},{"name":"submitter","type":"address","internalType":"address"},{"name":"payloadHash","type":"bytes32","internalType":"bytes32"},{"name":"storagePointer","type":"string","internalType":"string"},{"name":"severity","type":"uint8","internalType":"uint8"},{"name":"category","type":"uint8","internalType":"uint8"},{"name":"submittedAt","type":"uint256","internalType":"uint256"},{"name":"active","type":"bool","internalType":"bool"}],"stateMutability":"view"},{"type":"event","name":"ThreatResolved","inputs":[{"name":"id","type":"uint256","indexed":true,"internalType":"uint256"},{"name":"resolver","type":"address","indexed":true,"internalType":"address"}],"anonymous":false},{"type":"event","name":"ThreatSubmitted","inputs":[{"name":"id","type":"uint256","indexed":true,"internalType":"uint256"},{"name":"submitter","type":"address","indexed":true,"internalType":"address"},{"name":"severity","type":"uint8","indexed":false,"internalType":"uint8"},{"name":"category","type":"uint8","indexed":false,"internalType":"uint8"}],"anonymous":false},{"type":"error","name":"InvalidThreat","inputs":[]},{"type":"error","name":"NotRegisteredOrganization","inputs":[]},{"type":"error","name":"OrganizationInactive","inputs":[]},{"type":"error","name":"ThreatAlreadyResolved","inputs":[]},{"type":"error","name":"ThreatStillActive","inputs":[]}],"bytecode":{"object":"0x608060405234801561000f575f5ffd5b5060405161105d38038061105d833981810160405281019061003191906100d4565b805f5f6101000a81548173ffffffffffffffffffffffffffffffffffffffff021916908373ffffffffffffffffffffffffffffffffffffffff160217905550506100ff565b5f5ffd5b5f73ffffffffffffffffffffffffffffffffffffffff82169050919050565b5f6100a38261007a565b9050919050565b6100b381610099565b81146100bd575f5ffd5b50565b5f815190506100ce816100aa565b92915050565b5f602082840312156100e9576100e8610076565b5b5f6100f6848285016100c0565b91505092915050565b610f518061010c5f395ff3fe608060405234801561000f575f5ffd5b5060043610610055575f3560e01c80630c0c84ab1461005957806351dc174214610075578063573f239c146100ac5780636eb143ba146100ca578063f808025f146100e8575b5f5ffd5b610073600480360381019061006e91906107f6565b610104565b005b61008f600480360381019061008a91906108ad565b61049d565b6040516100a39897969594939291906109ce565b60405180910390f35b6100b46105ab565b6040516100c19190610aac565b60405180910390f35b6100d26105cf565b6040516100df9190610ac5565b60405180910390f35b61010260048036038101906100fd91906108ad565b6105d5565b005b5f5f9054906101000a900473ffffffffffffffffffffffffffffffffffffffff1673ffffffffffffffffffffffffffffffffffffffff1663c3c5a547336040518263ffffffff1660e01b815260040161015d9190610ade565b602060405180830381865afa158015610178573d5f5f3e3d5ffd5b505050506040513d601f19601f8201168201806040525081019061019c9190610b21565b6101d2576040517faa3aeb6500000000000000000000000000000000000000000000000000000000815260040160405180910390fd5b5f5f9054906101000a900473ffffffffffffffffffffffffffffffffffffffff1673ffffffffffffffffffffffffffffffffffffffff16639f8a13d7336040518263ffffffff1660e01b815260040161022b9190610ade565b602060405180830381865afa158015610246573d5f5f3e3d5ffd5b505050506040513d601f19601f8201168201806040525081019061026a9190610b21565b6102a0576040517f3184e83d00000000000000000000000000000000000000000000000000000000815260040160405180910390fd5b60015f8154809291906102b290610b79565b919050555060405180610100016040528060015481526020013373ffffffffffffffffffffffffffffffffffffffff16815260200186815260200185858080601f0160208091040260200160405190810160405280939291908181526020018383808284375f81840152601f19601f8201169050808301925050505050505081526020018360ff1681526020018260ff1681526020014281526020016001151581525060025f60015481526020019081526020015f205f820151815f01556020820151816001015f6101000a81548173ffffffffffffffffffffffffffffffffffffffff021916908373ffffffffffffffffffffffffffffffffffffffff1602179055506040820151816002015560608201518160030190816103d59190610df2565b506080820151816004015f6101000a81548160ff021916908360ff16021790555060a08201518160040160016101000a81548160ff021916908360ff16021790555060c0820151816005015560e0820151816006015f6101000a81548160ff0219169083151502179055509050503373ffffffffffffffffffffffffffffffffffffffff166001547f603b87436cceb19244e3fcbf7da39746c45999a9562d84f2dc31e6f305e4d67d848460405161048e929190610ec1565b60405180910390a35050505050565b6002602052805f5260405f205f91509050805f015490806001015f9054906101000a900473ffffffffffffffffffffffffffffffffffffffff16908060020154908060030180546104ed90610c1a565b80601f016020809104026020016040519081016040528092919081815260200182805461051990610c1a565b80156105645780601f1061053b57610100808354040283529160200191610564565b820191905f5260205f20905b81548152906001019060200180831161054757829003601f168201915b505050505090806004015f9054906101000a900460ff16908060040160019054906101000a900460ff1690806005015490806006015f9054906101000a900460ff16905088565b5f5f9054906101000a900473ffffffffffffffffffffffffffffffffffffffff1681565b60015481565b5f8114806105e4575060015481115b1561061b576040517fd392cd2d00000000000000000000000000000000000000000000000000000000815260040160405180910390fd5b5f60025f8381526020019081526020015f209050806006015f9054906101000a900460ff16610676576040517f54b0f9f100000000000000000000000000000000000000000000000000000000815260040160405180910390fd5b61012c81600501546106889190610ee8565b4210156106c1576040517f284692c000000000000000000000000000000000000000000000000000000000815260040160405180910390fd5b5f816006015f6101000a81548160ff0219169083151502179055503373ffffffffffffffffffffffffffffffffffffffff16827f18071ae5898f9c40b8152b99d9c0dd04363e8f5a57083c92b9a56b26afa963a460405160405180910390a35050565b5f5ffd5b5f5ffd5b5f819050919050565b61073e8161072c565b8114610748575f5ffd5b50565b5f8135905061075981610735565b92915050565b5f5ffd5b5f5ffd5b5f5ffd5b5f5f83601f8401126107805761077f61075f565b5b8235905067ffffffffffffffff81111561079d5761079c610763565b5b6020830191508360018202830111156107b9576107b8610767565b5b9250929050565b5f60ff82169050919050565b6107d5816107c0565b81146107df575f5ffd5b50565b5f813590506107f0816107cc565b92915050565b5f5f5f5f5f6080868803121561080f5761080e610724565b5b5f61081c8882890161074b565b955050602086013567ffffffffffffffff81111561083d5761083c610728565b5b6108498882890161076b565b9450945050604061085c888289016107e2565b925050606061086d888289016107e2565b9150509295509295909350565b5f819050919050565b61088c8161087a565b8114610896575f5ffd5b50565b5f813590506108a781610883565b92915050565b5f602082840312156108c2576108c1610724565b5b5f6108cf84828501610899565b91505092915050565b6108e18161087a565b82525050565b5f73ffffffffffffffffffffffffffffffffffffffff82169050919050565b5f610910826108e7565b9050919050565b61092081610906565b82525050565b61092f8161072c565b82525050565b5f81519050919050565b5f82825260208201905092915050565b8281835e5f83830152505050565b5f601f19601f8301169050919050565b5f61097782610935565b610981818561093f565b935061099181856020860161094f565b61099a8161095d565b840191505092915050565b6109ae816107c0565b82525050565b5f8115159050919050565b6109c8816109b4565b82525050565b5f610100820190506109e25f83018b6108d8565b6109ef602083018a610917565b6109fc6040830189610926565b8181036060830152610a0e818861096d565b9050610a1d60808301876109a5565b610a2a60a08301866109a5565b610a3760c08301856108d8565b610a4460e08301846109bf565b9998505050505050505050565b5f819050919050565b5f610a74610a6f610a6a846108e7565b610a51565b6108e7565b9050919050565b5f610a8582610a5a565b9050919050565b5f610a9682610a7b565b9050919050565b610aa681610a8c565b82525050565b5f602082019050610abf5f830184610a9d565b92915050565b5f602082019050610ad85f8301846108d8565b92915050565b5f602082019050610af15f830184610917565b92915050565b610b00816109b4565b8114610b0a575f5ffd5b50565b5f81519050610b1b81610af7565b92915050565b5f60208284031215610b3657610b35610724565b5b5f610b4384828501610b0d565b91505092915050565b7f4e487b71000000000000000000000000000000000000000000000000000000005f52601160045260245ffd5b5f610b838261087a565b91507fffffffffffffffffffffffffffffffffffffffffffffffffffffffffffffffff8203610bb557610bb4610b4c565b5b600182019050919050565b7f4e487b71000000000000000000000000000000000000000000000000000000005f52604160045260245ffd5b7f4e487b71000000000000000000000000000000000000000000000000000000005f52602260045260245ffd5b5f6002820490506001821680610c3157607f821691505b602082108103610c4457610c43610bed565b5b50919050565b5f819050815f5260205f209050919050565b5f6020601f8301049050919050565b5f82821b905092915050565b5f60088302610ca67fffffffffffffffffffffffffffffffffffffffffffffffffffffffffffffffff82610c6b565b610cb08683610c6b565b95508019841693508086168417925050509392505050565b5f610ce2610cdd610cd88461087a565b610a51565b61087a565b9050919050565b5f819050919050565b610cfb83610cc8565b610d0f610d0782610ce9565b848454610c77565b825550505050565b5f5f905090565b610d26610d17565b610d31818484610cf2565b505050565b5f5b82811015610d5757610d4c5f828401610d1e565b600181019050610d38565b505050565b601f821115610daa5782821115610da957610d7681610c4a565b610d7f83610c5c565b610d8885610c5c565b6020861015610d95575f90505b808301610da482840382610d36565b505050505b5b505050565b5f82821c905092915050565b5f610dca5f1984600802610daf565b1980831691505092915050565b5f610de28383610dbb565b9150826002028217905092915050565b610dfb82610935565b67ffffffffffffffff811115610e1457610e13610bc0565b5b610e1e8254610c1a565b610e29828285610d5c565b5f60209050601f831160018114610e5a575f8415610e48578287015190505b610e528582610dd7565b865550610eb9565b601f198416610e6886610c4a565b5f5b82811015610e8f57848901518255600182019150602085019450602081019050610e6a565b86831015610eac5784890151610ea8601f891682610dbb565b8355505b6001600288020188555050505b505050505050565b5f604082019050610ed45f8301856109a5565b610ee160208301846109a5565b9392505050565b5f610ef28261087a565b9150610efd8361087a565b9250828201905080821115610f1557610f14610b4c565b5b9291505056fea264697066735822122057ac781537ca75d4e7792f762ce2c123bd1e32f2a122f1e4214c560430f16e7d64736f6c63430008210033","linkReferences":{}},"methodIdentifiers":{"orgRegistry()":"573f239c","resolveThreat(uint256)":"f808025f","submitThreat(bytes32,string,uint8,uint8)":"0c0c84ab","threatCounter()":"6eb143ba","threats(uint256)":"51dc1742"},"id":19}